{
  "contractName": "ParticipantFactory",
  "abi": [
    {
      "constant": true,
      "inputs": [
        {
          "name": "",
          "type": "uint256"
        }
      ],
      "name": "participantsList",
      "outputs": [
        {
          "name": "",
          "type": "address"
        }
      ],
      "payable": false,
      "stateMutability": "view",
      "type": "function"
    },
    {
      "constant": true,
      "inputs": [
        {
          "name": "",
          "type": "address"
        }
      ],
      "name": "participantContribution",
      "outputs": [
        {
          "name": "",
          "type": "uint256"
        }
      ],
      "payable": false,
      "stateMutability": "view",
      "type": "function"
    },
    {
      "constant": true,
      "inputs": [],
      "name": "FACTORY_OWNER",
      "outputs": [
        {
          "name": "",
          "type": "address"
        }
      ],
      "payable": false,
      "stateMutability": "view",
      "type": "function"
    },
    {
      "constant": false,
      "inputs": [],
      "name": "renounceOwnership",
      "outputs": [],
      "payable": false,
      "stateMutability": "nonpayable",
      "type": "function"
    },
    {
      "constant": true,
      "inputs": [],
      "name": "owner",
      "outputs": [
        {
          "name": "",
          "type": "address"
        }
      ],
      "payable": false,
      "stateMutability": "view",
      "type": "function"
    },
    {
      "constant": true,
      "inputs": [
        {
          "name": "",
          "type": "address"
        }
      ],
      "name": "participantConsumption",
      "outputs": [
        {
          "name": "",
          "type": "uint256"
        }
      ],
      "payable": false,
      "stateMutability": "view",
      "type": "function"
    },
    {
      "constant": true,
      "inputs": [
        {
          "name": "",
          "type": "address"
        }
      ],
      "name": "participantIncome",
      "outputs": [
        {
          "name": "",
          "type": "uint256"
        }
      ],
      "payable": false,
      "stateMutability": "view",
      "type": "function"
    },
    {
      "constant": false,
      "inputs": [
        {
          "name": "_newOwner",
          "type": "address"
        }
      ],
      "name": "transferOwnership",
      "outputs": [],
      "payable": false,
      "stateMutability": "nonpayable",
      "type": "function"
    },
    {
      "constant": true,
      "inputs": [],
      "name": "DEFAULT_VALIDATOR",
      "outputs": [
        {
          "name": "",
          "type": "address"
        }
      ],
      "payable": false,
      "stateMutability": "view",
      "type": "function"
    },
    {
      "constant": true,
      "inputs": [],
      "name": "test",
      "outputs": [
        {
          "name": "",
          "type": "uint256"
        }
      ],
      "payable": false,
      "stateMutability": "view",
      "type": "function"
    },
    {
      "inputs": [
        {
          "name": "_tokenAddress",
          "type": "address"
        }
      ],
      "payable": false,
      "stateMutability": "nonpayable",
      "type": "constructor"
    },
    {
      "anonymous": false,
      "inputs": [
        {
          "indexed": true,
          "name": "newParticipantAddress",
          "type": "address"
        },
        {
          "indexed": true,
          "name": "owner",
          "type": "address"
        }
      ],
      "name": "newParticipantCreated",
      "type": "event"
    },
    {
      "anonymous": false,
      "inputs": [
        {
          "indexed": true,
          "name": "previousOwner",
          "type": "address"
        }
      ],
      "name": "OwnershipRenounced",
      "type": "event"
    },
    {
      "anonymous": false,
      "inputs": [
        {
          "indexed": true,
          "name": "previousOwner",
          "type": "address"
        },
        {
          "indexed": true,
          "name": "newOwner",
          "type": "address"
        }
      ],
      "name": "OwnershipTransferred",
      "type": "event"
    },
    {
      "constant": false,
      "inputs": [
        {
          "name": "_participantOwner",
          "type": "address"
        }
      ],
      "name": "createChildParticipant",
      "outputs": [],
      "payable": false,
      "stateMutability": "nonpayable",
      "type": "function"
    },
    {
      "constant": true,
      "inputs": [],
      "name": "getDeployedParticipantContracts",
      "outputs": [
        {
          "name": "",
          "type": "address[]"
        }
      ],
      "payable": false,
      "stateMutability": "view",
      "type": "function"
    },
    {
      "constant": false,
      "inputs": [
        {
          "name": "_participant",
          "type": "address"
        },
        {
          "name": "_expense",
          "type": "uint256"
        }
      ],
      "name": "setNewExpense",
      "outputs": [],
      "payable": false,
      "stateMutability": "nonpayable",
      "type": "function"
    }
  ],
  "bytecode": "0x60806040526040805190810160405280600181526020017f4100000000000000000000000000000000000000000000000000000000000000815250600a908051906020019061004f9291906101d5565b506040805190810160405280600581526020017f4755494649000000000000000000000000000000000000000000000000000000815250600b908051906020019061009b9291906101d5565b503480156100a857600080fd5b50604051602080620040df83398101806040528101908080519060200190929190505050336000806101000a81548173ffffffffffffffffffffffffffffffffffffffff021916908373ffffffffffffffffffffffffffffffffffffffff16021790555033600260006101000a81548173ffffffffffffffffffffffffffffffffffffffff021916908373ffffffffffffffffffffffffffffffffffffffff16021790555033600360006101000a81548173ffffffffffffffffffffffffffffffffffffffff021916908373ffffffffffffffffffffffffffffffffffffffff16021790555080600860006101000a81548173ffffffffffffffffffffffffffffffffffffffff021916908373ffffffffffffffffffffffffffffffffffffffff1602179055505061027a565b828054600181600116156101000203166002900490600052602060002090601f016020900481019282601f1061021657805160ff1916838001178555610244565b82800160010185558215610244579182015b82811115610243578251825591602001919060010190610228565b5b5090506102519190610255565b5090565b61027791905b8082111561027357600081600090555060010161025b565b5090565b90565b613e55806200028a6000396000f300608060405260043610620000d3576000357c0100000000000000000000000000000000000000000000000000000000900463ffffffff1680632820aece14620000d857806333c74e791462000148578063487e31e414620001a25780635935cbfe14620001e8578063715018a614620002425780638da5cb5b146200025c578063a203536114620002b6578063bd67189b1462000310578063d3f696f2146200036a578063e2c990a914620003ba578063f2fde38b146200042b578063f43e92591462000471578063f8a8fd6d14620004cb575b600080fd5b348015620000e557600080fd5b506200010660048036038101908080359060200190929190505050620004f9565b604051808273ffffffffffffffffffffffffffffffffffffffff1673ffffffffffffffffffffffffffffffffffffffff16815260200191505060405180910390f35b3480156200015557600080fd5b506200018c600480360381019080803573ffffffffffffffffffffffffffffffffffffffff16906020019092919050505062000538565b6040518082815260200191505060405180910390f35b348015620001af57600080fd5b50620001e6600480360381019080803573ffffffffffffffffffffffffffffffffffffffff16906020019092919050505062000550565b005b348015620001f557600080fd5b506200020062000898565b604051808273ffffffffffffffffffffffffffffffffffffffff1673ffffffffffffffffffffffffffffffffffffffff16815260200191505060405180910390f35b3480156200024f57600080fd5b506200025a620008be565b005b3480156200026957600080fd5b5062000274620009c1565b604051808273ffffffffffffffffffffffffffffffffffffffff1673ffffffffffffffffffffffffffffffffffffffff16815260200191505060405180910390f35b348015620002c357600080fd5b50620002fa600480360381019080803573ffffffffffffffffffffffffffffffffffffffff169060200190929190505050620009e6565b6040518082815260200191505060405180910390f35b3480156200031d57600080fd5b5062000354600480360381019080803573ffffffffffffffffffffffffffffffffffffffff169060200190929190505050620009fe565b6040518082815260200191505060405180910390f35b3480156200037757600080fd5b50620003b8600480360381019080803573ffffffffffffffffffffffffffffffffffffffff1690602001909291908035906020019092919050505062000a16565b005b348015620003c757600080fd5b50620003d262000ab1565b6040518080602001828103825283818151815260200191508051906020019060200280838360005b8381101562000417578082015181840152602081019050620003fa565b505050509050019250505060405180910390f35b3480156200043857600080fd5b506200046f600480360381019080803573ffffffffffffffffffffffffffffffffffffffff16906020019092919050505062000b41565b005b3480156200047e57600080fd5b506200048962000bab565b604051808273ffffffffffffffffffffffffffffffffffffffff1673ffffffffffffffffffffffffffffffffffffffff16815260200191505060405180910390f35b348015620004d857600080fd5b50620004e362000bd1565b6040518082815260200191505060405180910390f35b6001818154811015156200050957fe5b906000526020600020016000915054906101000a900473ffffffffffffffffffffffffffffffffffffffff1681565b60056020528060005260406000206000915090505481565b60008060009054906101000a900473ffffffffffffffffffffffffffffffffffffffff1673ffffffffffffffffffffffffffffffffffffffff163373ffffffffffffffffffffffffffffffffffffffff16141515620005ae57600080fd5b600b8230600260009054906101000a900473ffffffffffffffffffffffffffffffffffffffff16600360009054906101000a900473ffffffffffffffffffffffffffffffffffffffff16600860009054906101000a900473ffffffffffffffffffffffffffffffffffffffff166200062562000cef565b80806020018773ffffffffffffffffffffffffffffffffffffffff1673ffffffffffffffffffffffffffffffffffffffff1681526020018673ffffffffffffffffffffffffffffffffffffffff1673ffffffffffffffffffffffffffffffffffffffff1681526020018573ffffffffffffffffffffffffffffffffffffffff1673ffffffffffffffffffffffffffffffffffffffff1681526020018473ffffffffffffffffffffffffffffffffffffffff1673ffffffffffffffffffffffffffffffffffffffff1681526020018373ffffffffffffffffffffffffffffffffffffffff1673ffffffffffffffffffffffffffffffffffffffff168152602001828103825288818154600181600116156101000203166002900481526020019150805460018160011615610100020316600290048015620007a95780601f106200077d57610100808354040283529160200191620007a9565b820191906000526020600020905b8154815290600101906020018083116200078b57829003601f168201915b5050975050505050505050604051809103906000f080158015620007d1573d6000803e3d6000fd5b50905060018190806001815401808255809150509060018203906000526020600020016000909192909190916101000a81548173ffffffffffffffffffffffffffffffffffffffff021916908373ffffffffffffffffffffffffffffffffffffffff160217905550508173ffffffffffffffffffffffffffffffffffffffff168173ffffffffffffffffffffffffffffffffffffffff167fe606c3eb7e443ca56f2f79d6d54f46f178391313f4482177389ee9e91efdaa6760405160405180910390a35050565b600260009054906101000a900473ffffffffffffffffffffffffffffffffffffffff1681565b6000809054906101000a900473ffffffffffffffffffffffffffffffffffffffff1673ffffffffffffffffffffffffffffffffffffffff163373ffffffffffffffffffffffffffffffffffffffff161415156200091a57600080fd5b6000809054906101000a900473ffffffffffffffffffffffffffffffffffffffff1673ffffffffffffffffffffffffffffffffffffffff167ff8df31144d9c2f0f6b59d69b8b98abd5459d07f2742c4df920b25aae33c6482060405160405180910390a260008060006101000a81548173ffffffffffffffffffffffffffffffffffffffff021916908373ffffffffffffffffffffffffffffffffffffffff160217905550565b6000809054906101000a900473ffffffffffffffffffffffffffffffffffffffff1681565b60046020528060005260406000206000915090505481565b60066020528060005260406000206000915090505481565b62000a6a81600560008573ffffffffffffffffffffffffffffffffffffffff1673ffffffffffffffffffffffffffffffffffffffff1681526020019081526020016000205462000bd790919063ffffffff16565b600560008473ffffffffffffffffffffffffffffffffffffffff1673ffffffffffffffffffffffffffffffffffffffff168152602001908152602001600020819055505050565b6060600180548060200260200160405190810160405280929190818152602001828054801562000b3757602002820191906000526020600020905b8160009054906101000a900473ffffffffffffffffffffffffffffffffffffffff1673ffffffffffffffffffffffffffffffffffffffff168152602001906001019080831162000aec575b5050505050905090565b6000809054906101000a900473ffffffffffffffffffffffffffffffffffffffff1673ffffffffffffffffffffffffffffffffffffffff163373ffffffffffffffffffffffffffffffffffffffff1614151562000b9d57600080fd5b62000ba88162000bf4565b50565b600360009054906101000a900473ffffffffffffffffffffffffffffffffffffffff1681565b60095481565b6000818301905082811015151562000beb57fe5b80905092915050565b600073ffffffffffffffffffffffffffffffffffffffff168173ffffffffffffffffffffffffffffffffffffffff161415151562000c3157600080fd5b8073ffffffffffffffffffffffffffffffffffffffff166000809054906101000a900473ffffffffffffffffffffffffffffffffffffffff1673ffffffffffffffffffffffffffffffffffffffff167f8be0079c531659141344cd1fd0a4f28419497f9722a3daafe3b4186f6b6457e060405160405180910390a3806000806101000a81548173ffffffffffffffffffffffffffffffffffffffff021916908373ffffffffffffffffffffffffffffffffffffffff16021790555050565b6040516131298062000d01833901905600608060405230600360006101000a81548173ffffffffffffffffffffffffffffffffffffffff021916908373ffffffffffffffffffffffffffffffffffffffff160217905550600360009054906101000a900473ffffffffffffffffffffffffffffffffffffffff1673ffffffffffffffffffffffffffffffffffffffff1631600e5560016010553480156200009457600080fd5b50604051620031293803806200312983398101806040528101908080518201929190602001805190602001909291908051906020019092919080519060200190929190805190602001909291908051906020019092919050505085600c908051906020019062000106929190620002d9565b5084600260006101000a81548173ffffffffffffffffffffffffffffffffffffffff021916908373ffffffffffffffffffffffffffffffffffffffff16021790555083600460006101000a81548173ffffffffffffffffffffffffffffffffffffffff021916908373ffffffffffffffffffffffffffffffffffffffff16021790555082600560006101000a81548173ffffffffffffffffffffffffffffffffffffffff021916908373ffffffffffffffffffffffffffffffffffffffff16021790555081600660006101000a81548173ffffffffffffffffffffffffffffffffffffffff021916908373ffffffffffffffffffffffffffffffffffffffff160217905550836000806101000a81548173ffffffffffffffffffffffffffffffffffffffff021916908373ffffffffffffffffffffffffffffffffffffffff16021790555080600160006101000a81548173ffffffffffffffffffffffffffffffffffffffff021916908373ffffffffffffffffffffffffffffffffffffffff16021790555080600760006101000a81548173ffffffffffffffffffffffffffffffffffffffff021916908373ffffffffffffffffffffffffffffffffffffffff16021790555050505050505062000388565b828054600181600116156101000203166002900490600052602060002090601f016020900481019282601f106200031c57805160ff19168380011785556200034d565b828001600101855582156200034d579182015b828111156200034c5782518255916020019190600101906200032f565b5b5090506200035c919062000360565b5090565b6200038591905b808211156200038157600081600090555060010162000367565b5090565b90565b612d9180620003986000396000f3006080604052600436106101ac576000357c0100000000000000000000000000000000000000000000000000000000900463ffffffff16806304922862146101ae57806306fdde03146101f35780630b015029146102835780631456979f146102da5780631e6b7f8e146103355780631ff94ed2146103a257806322b8d4bd146103f957806335b11b9a146104265780633a5381b5146104535780633de976ed146104aa5780634273601c1461052b5780634462866b146105825780635acee035146105ad57806365d26a9c146105f25780636dc906ca1461061d578063732e0a1d1461064c57806378c6506a146106a3578063823a65f5146107b557806389e0e9b7146107f65780638f081ece1461083b5780638f21f59a14610866578063a0dca3b514610891578063ad99bcb0146108e8578063af4afe0a1461093f578063b44e8bd214610992578063b6d40bc7146109e9578063b7e78f7f14610a16578063c0abda2a14610a65578063c6c85ca514610b49578063c820b3df14610b8e578063ce4d01a314610bdd578063cf35bdd014610c0a578063d808620314610d5f578063e3b73d3e14610d8a575b005b3480156101ba57600080fd5b506101d960048036038101908080359060200190929190505050610e1a565b604051808215151515815260200191505060405180910390f35b3480156101ff57600080fd5b50610208610fa6565b6040518080602001828103825283818151815260200191508051906020019080838360005b8381101561024857808201518184015260208101905061022d565b50505050905090810190601f1680156102755780820380516001836020036101000a031916815260200191505b509250505060405180910390f35b34801561028f57600080fd5b50610298611044565b604051808273ffffffffffffffffffffffffffffffffffffffff1673ffffffffffffffffffffffffffffffffffffffff16815260200191505060405180910390f35b3480156102e657600080fd5b5061031b600480360381019080803573ffffffffffffffffffffffffffffffffffffffff16906020019092919050505061106a565b604051808215151515815260200191505060405180910390f35b34801561034157600080fd5b5061036060048036038101908080359060200190929190505050611112565b604051808273ffffffffffffffffffffffffffffffffffffffff1673ffffffffffffffffffffffffffffffffffffffff16815260200191505060405180910390f35b3480156103ae57600080fd5b506103b7611150565b604051808273ffffffffffffffffffffffffffffffffffffffff1673ffffffffffffffffffffffffffffffffffffffff16815260200191505060405180910390f35b34801561040557600080fd5b5061042460048036038101908080359060200190929190505050611176565b005b34801561043257600080fd5b50610451600480360381019080803590602001909291905050506111bb565b005b34801561045f57600080fd5b50610468611200565b604051808273ffffffffffffffffffffffffffffffffffffffff1673ffffffffffffffffffffffffffffffffffffffff16815260200191505060405180910390f35b3480156104b657600080fd5b50610511600480360381019080803590602001908201803590602001908080601f0160208091040260200160405190810160405280939291908181526020018383808284378201915050505050509192919290505050611226565b604051808215151515815260200191505060405180910390f35b34801561053757600080fd5b50610540611326565b604051808273ffffffffffffffffffffffffffffffffffffffff1673ffffffffffffffffffffffffffffffffffffffff16815260200191505060405180910390f35b34801561058e57600080fd5b5061059761134c565b6040518082815260200191505060405180910390f35b3480156105b957600080fd5b506105d860048036038101908080359060200190929190505050611352565b604051808215151515815260200191505060405180910390f35b3480156105fe57600080fd5b506106076114df565b6040518082815260200191505060405180910390f35b34801561062957600080fd5b506106326114e5565b604051808215151515815260200191505060405180910390f35b34801561065857600080fd5b506106616116ea565b604051808273ffffffffffffffffffffffffffffffffffffffff1673ffffffffffffffffffffffffffffffffffffffff16815260200191505060405180910390f35b3480156106af57600080fd5b5061079b600480360381019080803590602001908201803590602001908080601f0160208091040260200160405190810160405280939291908181526020018383808284378201915050505050509192919290803590602001908201803590602001908080601f016020809104026020016040519081016040528093929190818152602001838380828437820191505050505050919291929080359060200190929190803590602001909291908035906020019092919080351515906020019092919080359060200190929190803560ff16906020019092919080359060200190929190505050611710565b604051808215151515815260200191505060405180910390f35b3480156107c157600080fd5b506107e06004803603810190808035906020019092919050505061191d565b6040518082815260200191505060405180910390f35b34801561080257600080fd5b506108216004803603810190808035906020019092919050505061195f565b604051808215151515815260200191505060405180910390f35b34801561084757600080fd5b50610850611b15565b6040518082815260200191505060405180910390f35b34801561087257600080fd5b5061087b611b1b565b6040518082815260200191505060405180910390f35b34801561089d57600080fd5b506108d2600480360381019080803573ffffffffffffffffffffffffffffffffffffffff169060200190929190505050611b21565b6040518082815260200191505060405180910390f35b3480156108f457600080fd5b50610929600480360381019080803573ffffffffffffffffffffffffffffffffffffffff169060200190929190505050611b39565b6040518082815260200191505060405180910390f35b34801561094b57600080fd5b5061096a60048036038101908080359060200190929190505050611b51565b6040518084815260200183815260200182151515158152602001935050505060405180910390f35b34801561099e57600080fd5b506109a7611b88565b604051808273ffffffffffffffffffffffffffffffffffffffff1673ffffffffffffffffffffffffffffffffffffffff16815260200191505060405180910390f35b3480156109f557600080fd5b50610a1460048036038101908080359060200190929190505050611bae565b005b348015610a2257600080fd5b50610a4b6004803603810190808035906020019092919080359060200190929190505050611bf3565b604051808215151515815260200191505060405180910390f35b348015610a7157600080fd5b50610a9060048036038101908080359060200190929190505050611e50565b60405180806020018473ffffffffffffffffffffffffffffffffffffffff1673ffffffffffffffffffffffffffffffffffffffff16815260200183151515158152602001828103825285818151815260200191508051906020019080838360005b83811015610b0c578082015181840152602081019050610af1565b50505050905090810190601f168015610b395780820380516001836020036101000a031916815260200191505b5094505050505060405180910390f35b348015610b5557600080fd5b50610b7460048036038101908080359060200190929190505050611f4e565b604051808215151515815260200191505060405180910390f35b348015610b9a57600080fd5b50610bc36004803603810190808035906020019092919080359060200190929190505050611fbc565b604051808215151515815260200191505060405180910390f35b348015610be957600080fd5b50610c08600480360381019080803590602001909291905050506120b6565b005b348015610c1657600080fd5b50610c35600480360381019080803590602001909291905050506122c9565b6040518080602001806020018a815260200189815260200188815260200187151515158152602001868152602001856006811115610c6f57fe5b60ff16815260200184815260200183810383528c818151815260200191508051906020019080838360005b83811015610cb5578082015181840152602081019050610c9a565b50505050905090810190601f168015610ce25780820380516001836020036101000a031916815260200191505b5083810382528b818151815260200191508051906020019080838360005b83811015610d1b578082015181840152602081019050610d00565b50505050905090810190601f168015610d485780820380516001836020036101000a031916815260200191505b509b50505050505050505050505060405180910390f35b348015610d6b57600080fd5b50610d74612470565b6040518082815260200191505060405180910390f35b348015610d9657600080fd5b50610d9f612476565b6040518080602001828103825283818151815260200191508051906020019080838360005b83811015610ddf578082015181840152602081019050610dc4565b50505050905090810190601f168015610e0c5780820380516001836020036101000a031916815260200191505b509250505060405180910390f35b6000600160009054906101000a900473ffffffffffffffffffffffffffffffffffffffff1673ffffffffffffffffffffffffffffffffffffffff166323b872dd3330856040518463ffffffff167c0100000000000000000000000000000000000000000000000000000000028152600401808473ffffffffffffffffffffffffffffffffffffffff1673ffffffffffffffffffffffffffffffffffffffff1681526020018373ffffffffffffffffffffffffffffffffffffffff1673ffffffffffffffffffffffffffffffffffffffff1681526020018281526020019350505050602060405180830381600087803b158015610f1557600080fd5b505af1158015610f29573d6000803e3d6000fd5b505050506040513d6020811015610f3f57600080fd5b81019080805190602001909291905050505081600960003373ffffffffffffffffffffffffffffffffffffffff1673ffffffffffffffffffffffffffffffffffffffff16815260200190815260200160002060008282540192505081905550809050919050565b600c8054600181600116156101000203166002900480601f01602080910402602001604051908101604052809291908181526020018280546001816001161561010002031660029004801561103c5780601f106110115761010080835404028352916020019161103c565b820191906000526020600020905b81548152906001019060200180831161101f57829003601f168201915b505050505081565b600260009054906101000a900473ffffffffffffffffffffffffffffffffffffffff1681565b6000600560009054906101000a900473ffffffffffffffffffffffffffffffffffffffff1673ffffffffffffffffffffffffffffffffffffffff163373ffffffffffffffffffffffffffffffffffffffff161415156110c857600080fd5b81600660006101000a81548173ffffffffffffffffffffffffffffffffffffffff021916908373ffffffffffffffffffffffffffffffffffffffff16021790555060019050919050565b600a8181548110151561112157fe5b906000526020600020016000915054906101000a900473ffffffffffffffffffffffffffffffffffffffff1681565b600760009054906101000a900473ffffffffffffffffffffffffffffffffffffffff1681565b600160158281548110151561118757fe5b906000526020600020906009020160070160006101000a81548160ff021916908360068111156111b357fe5b021790555050565b60006015828154811015156111cc57fe5b906000526020600020906009020160070160006101000a81548160ff021916908360068111156111f857fe5b021790555050565b600660009054906101000a900473ffffffffffffffffffffffffffffffffffffffff1681565b6000611230612530565b6060604051908101604052808481526020013373ffffffffffffffffffffffffffffffffffffffff1681526020016001151581525090506016819080600181540180825580915050906001820390600052602060002090600202016000909192909190915060008201518160000190805190602001906112b192919061256a565b5060208201518160010160006101000a81548173ffffffffffffffffffffffffffffffffffffffff021916908373ffffffffffffffffffffffffffffffffffffffff16021790555060408201518160010160146101000a81548160ff0219169083151502179055505050506001915050919050565b600560009054906101000a900473ffffffffffffffffffffffffffffffffffffffff1681565b600d5481565b6000600260009054906101000a900473ffffffffffffffffffffffffffffffffffffffff1673ffffffffffffffffffffffffffffffffffffffff163373ffffffffffffffffffffffffffffffffffffffff161415156113b057600080fd5b6011600081548092919060010191905055601281905550606060405190810160405280601254815260200183815260200160001515815250601360006012548152602001908152602001600020600082015181600001556020820151816001015560408201518160020160006101000a81548160ff02191690831515021790555090505061144982600d5461251490919063ffffffff16565b600d81905550600660009054906101000a900473ffffffffffffffffffffffffffffffffffffffff1673ffffffffffffffffffffffffffffffffffffffff163073ffffffffffffffffffffffffffffffffffffffff167f7a2590a948e6ad1ff886f59d243098b6ca9e9f4a075ee752b0554ea825ebda49846040518082815260200191505060405180910390a360019050919050565b600f5481565b600080600260009054906101000a900473ffffffffffffffffffffffffffffffffffffffff1673ffffffffffffffffffffffffffffffffffffffff163373ffffffffffffffffffffffffffffffffffffffff1614151561154457600080fd5b60105430600160009054906101000a900473ffffffffffffffffffffffffffffffffffffffff166115736125ea565b808481526020018373ffffffffffffffffffffffffffffffffffffffff1673ffffffffffffffffffffffffffffffffffffffff1681526020018273ffffffffffffffffffffffffffffffffffffffff1673ffffffffffffffffffffffffffffffffffffffff1681526020019350505050604051809103906000f0801580156115ff573d6000803e3d6000fd5b509050600a8190806001815401808255809150509060018203906000526020600020016000909192909190916101000a81548173ffffffffffffffffffffffffffffffffffffffff021916908373ffffffffffffffffffffffffffffffffffffffff160217905550503073ffffffffffffffffffffffffffffffffffffffff167f5528ae0c6ec6957c4383f9b61c3d69630f26d6ea3a4334531a6a606c637d9fcc82604051808273ffffffffffffffffffffffffffffffffffffffff1673ffffffffffffffffffffffffffffffffffffffff16815260200191505060405180910390a2600191505090565b600460009054906101000a900473ffffffffffffffffffffffffffffffffffffffff1681565b600061171a6125fa565b600260009054906101000a900473ffffffffffffffffffffffffffffffffffffffff1673ffffffffffffffffffffffffffffffffffffffff163373ffffffffffffffffffffffffffffffffffffffff1614151561177657600080fd5b610120604051908101604052808c81526020018b81526020018a815260200189815260200188815260200187151581526020018681526020018560068111156117bb57fe5b815260200184815250905060158190806001815401808255809150509060018203906000526020600020906009020160009091929091909150600082015181600001908051906020019061181092919061256a565b50602082015181600101908051906020019061182d92919061256a565b5060408201518160020155606082015181600301556080820151816004015560a08201518160050160006101000a81548160ff02191690831515021790555060c0820151816006015560e08201518160070160006101000a81548160ff0219169083600681111561189a57fe5b021790555061010082015181600801555050503073ffffffffffffffffffffffffffffffffffffffff167fb5c64349e05114627c17bd9d24a1c352873fc266dad444db9a3103fcbb415a3482604001518360600151604051808381526020018281526020019250505060405180910390a260019150509998505050505050505050565b600060158281548110151561192e57fe5b906000526020600020906009020160070160009054906101000a900460ff16600681111561195857fe5b9050919050565b6000600260009054906101000a900473ffffffffffffffffffffffffffffffffffffffff1673ffffffffffffffffffffffffffffffffffffffff163373ffffffffffffffffffffffffffffffffffffffff161415156119bd57600080fd5b600160009054906101000a900473ffffffffffffffffffffffffffffffffffffffff1673ffffffffffffffffffffffffffffffffffffffff166340c10f1930846040518363ffffffff167c0100000000000000000000000000000000000000000000000000000000028152600401808373ffffffffffffffffffffffffffffffffffffffff1673ffffffffffffffffffffffffffffffffffffffff16815260200182815260200192505050602060405180830381600087803b158015611a8257600080fd5b505af1158015611a96573d6000803e3d6000fd5b505050506040513d6020811015611aac57600080fd5b8101908080519060200190929190505050503073ffffffffffffffffffffffffffffffffffffffff167f735325922b6822c5e3ee965f6dcb4193a10a646ca799d2fecdf3674a029b3dc2836040518082815260200191505060405180910390a260019050919050565b60115481565b600e5481565b60096020528060005260406000206000915090505481565b60146020528060005260406000206000915090505481565b60136020528060005260406000206000915090508060000154908060010154908060020160009054906101000a900460ff16905083565b600360009054906101000a900473ffffffffffffffffffffffffffffffffffffffff1681565b6002601582815481101515611bbf57fe5b906000526020600020906009020160070160006101000a81548160ff02191690836006811115611beb57fe5b021790555050565b6000600260009054906101000a900473ffffffffffffffffffffffffffffffffffffffff1673ffffffffffffffffffffffffffffffffffffffff163373ffffffffffffffffffffffffffffffffffffffff16141515611c5157600080fd5b600160009054906101000a900473ffffffffffffffffffffffffffffffffffffffff1673ffffffffffffffffffffffffffffffffffffffff1663a9059cbb600a85815481101515611c9e57fe5b9060005260206000200160009054906101000a900473ffffffffffffffffffffffffffffffffffffffff16846040518363ffffffff167c0100000000000000000000000000000000000000000000000000000000028152600401808373ffffffffffffffffffffffffffffffffffffffff1673ffffffffffffffffffffffffffffffffffffffff16815260200182815260200192505050602060405180830381600087803b158015611d4f57600080fd5b505af1158015611d63573d6000803e3d6000fd5b505050506040513d6020811015611d7957600080fd5b8101908080519060200190929190505050503073ffffffffffffffffffffffffffffffffffffffff167f9924fada74a13651a82adbcc802853518abec01adb48d06fcc7d648703b7180f600a85815481101515611dd257fe5b9060005260206000200160009054906101000a900473ffffffffffffffffffffffffffffffffffffffff1684604051808373ffffffffffffffffffffffffffffffffffffffff1673ffffffffffffffffffffffffffffffffffffffff1681526020018281526020019250505060405180910390a26001905092915050565b601681815481101515611e5f57fe5b9060005260206000209060020201600091509050806000018054600181600116156101000203166002900480601f016020809104026020016040519081016040528092919081815260200182805460018160011615610100020316600290048015611f0b5780601f10611ee057610100808354040283529160200191611f0b565b820191906000526020600020905b815481529060010190602001808311611eee57829003601f168201915b5050505050908060010160009054906101000a900473ffffffffffffffffffffffffffffffffffffffff16908060010160149054906101000a900460ff16905083565b6000600260009054906101000a900473ffffffffffffffffffffffffffffffffffffffff1673ffffffffffffffffffffffffffffffffffffffff163373ffffffffffffffffffffffffffffffffffffffff16141515611fac57600080fd5b8160108190555060019050919050565b6000600260009054906101000a900473ffffffffffffffffffffffffffffffffffffffff1673ffffffffffffffffffffffffffffffffffffffff163373ffffffffffffffffffffffffffffffffffffffff1614151561201a57600080fd5b8160158481548110151561202a57fe5b9060005260206000209060090201600801819055503073ffffffffffffffffffffffffffffffffffffffff167f47175308461a7a0683b5a496592da50c92a88bc4b37bcb301ded8edf706c229860158581548110151561208657fe5b9060005260206000209060090201600801546040518082815260200191505060405180910390a280905092915050565b6000600660009054906101000a900473ffffffffffffffffffffffffffffffffffffffff1673ffffffffffffffffffffffffffffffffffffffff163373ffffffffffffffffffffffffffffffffffffffff1614151561211457600080fd5b60136000838152602001908152602001600020905060018160020160006101000a81548160ff0219169083151502179055506000809054906101000a900473ffffffffffffffffffffffffffffffffffffffff1673ffffffffffffffffffffffffffffffffffffffff1663d3f696f23083600101546040518363ffffffff167c0100000000000000000000000000000000000000000000000000000000028152600401808373ffffffffffffffffffffffffffffffffffffffff1673ffffffffffffffffffffffffffffffffffffffff16815260200182815260200192505050600060405180830381600087803b15801561220e57600080fd5b505af1158015612222573d6000803e3d6000fd5b50505050600660009054906101000a900473ffffffffffffffffffffffffffffffffffffffff1673ffffffffffffffffffffffffffffffffffffffff163073ffffffffffffffffffffffffffffffffffffffff167f6a003c6c85a8f3267325d6a6f627c003dda073695ef710b0b7242ab341189acd83600101546040518082815260200191505060405180910390a38060010154600f600082825401925050819055505050565b6015818154811015156122d857fe5b9060005260206000209060090201600091509050806000018054600181600116156101000203166002900480601f0160208091040260200160405190810160405280929190818152602001828054600181600116156101000203166002900480156123845780601f1061235957610100808354040283529160200191612384565b820191906000526020600020905b81548152906001019060200180831161236757829003601f168201915b505050505090806001018054600181600116156101000203166002900480601f0160208091040260200160405190810160405280929190818152602001828054600181600116156101000203166002900480156124225780601f106123f757610100808354040283529160200191612422565b820191906000526020600020905b81548152906001019060200180831161240557829003601f168201915b5050505050908060020154908060030154908060040154908060050160009054906101000a900460ff16908060060154908060070160009054906101000a900460ff16908060080154905089565b60105481565b600b8054600181600116156101000203166002900480601f01602080910402602001604051908101604052809291908181526020018280546001816001161561010002031660029004801561250c5780601f106124e15761010080835404028352916020019161250c565b820191906000526020600020905b8154815290600101906020018083116124ef57829003601f168201915b505050505081565b6000818301905082811015151561252757fe5b80905092915050565b60606040519081016040528060608152602001600073ffffffffffffffffffffffffffffffffffffffff1681526020016000151581525090565b828054600181600116156101000203166002900490600052602060002090601f016020900481019282601f106125ab57805160ff19168380011785556125d9565b828001600101855582156125d9579182015b828111156125d85782518255916020019190600101906125bd565b5b5090506125e69190612654565b5090565b6040516106ec8061267a83390190565b610120604051908101604052806060815260200160608152602001600081526020016000815260200160008152602001600015158152602001600081526020016000600681111561264757fe5b8152602001600081525090565b61267691905b8082111561267257600081600090555060010161265a565b5090565b905600608060405234801561001057600080fd5b506040516060806106ec83398101806040528101908080519060200190929190805190602001909291908051906020019092919050505060008311151561005657600080fd5b600073ffffffffffffffffffffffffffffffffffffffff168273ffffffffffffffffffffffffffffffffffffffff161415151561009257600080fd5b600073ffffffffffffffffffffffffffffffffffffffff168173ffffffffffffffffffffffffffffffffffffffff16141515156100ce57600080fd5b8260028190555081600160006101000a81548173ffffffffffffffffffffffffffffffffffffffff021916908373ffffffffffffffffffffffffffffffffffffffff160217905550806000806101000a81548173ffffffffffffffffffffffffffffffffffffffff021916908373ffffffffffffffffffffffffffffffffffffffff160217905550505050610584806101686000396000f30060806040526004361061006d576000357c0100000000000000000000000000000000000000000000000000000000900463ffffffff1680632c4e722e146100785780634042b66f146100a3578063521eb273146100ce578063ec8ac4d814610125578063fc0c546a1461015b575b610076336101b2565b005b34801561008457600080fd5b5061008d610280565b6040518082815260200191505060405180910390f35b3480156100af57600080fd5b506100b8610286565b6040518082815260200191505060405180910390f35b3480156100da57600080fd5b506100e361028c565b604051808273ffffffffffffffffffffffffffffffffffffffff1673ffffffffffffffffffffffffffffffffffffffff16815260200191505060405180910390f35b610159600480360381019080803573ffffffffffffffffffffffffffffffffffffffff1690602001909291905050506101b2565b005b34801561016757600080fd5b506101706102b2565b604051808273ffffffffffffffffffffffffffffffffffffffff1673ffffffffffffffffffffffffffffffffffffffff16815260200191505060405180910390f35b6000803491506101c283836102d7565b6101cb82610327565b90506101e28260035461034590919063ffffffff16565b6003819055506101f28382610361565b8273ffffffffffffffffffffffffffffffffffffffff163373ffffffffffffffffffffffffffffffffffffffff167f623b3804fa71d67900d064613da8f94b9617215ee90799290593e1745087ad188484604051808381526020018281526020019250505060405180910390a3610269838361036f565b610271610373565b61027b83836103de565b505050565b60025481565b60035481565b600160009054906101000a900473ffffffffffffffffffffffffffffffffffffffff1681565b6000809054906101000a900473ffffffffffffffffffffffffffffffffffffffff1681565b600073ffffffffffffffffffffffffffffffffffffffff168273ffffffffffffffffffffffffffffffffffffffff161415151561031357600080fd5b6000811415151561032357600080fd5b5050565b600061033e600254836103e290919063ffffffff16565b9050919050565b6000818301905082811015151561035857fe5b80905092915050565b61036b828261041a565b5050565b5050565b600160009054906101000a900473ffffffffffffffffffffffffffffffffffffffff1673ffffffffffffffffffffffffffffffffffffffff166108fc349081150290604051600060405180830381858888f193505050501580156103db573d6000803e3d6000fd5b50565b5050565b6000808314156103f55760009050610414565b818302905081838281151561040657fe5b0414151561041057fe5b8090505b92915050565b61046682826000809054906101000a900473ffffffffffffffffffffffffffffffffffffffff1673ffffffffffffffffffffffffffffffffffffffff1661046a9092919063ffffffff16565b5050565b8273ffffffffffffffffffffffffffffffffffffffff1663a9059cbb83836040518363ffffffff167c0100000000000000000000000000000000000000000000000000000000028152600401808373ffffffffffffffffffffffffffffffffffffffff1673ffffffffffffffffffffffffffffffffffffffff16815260200182815260200192505050602060405180830381600087803b15801561050d57600080fd5b505af1158015610521573d6000803e3d6000fd5b505050506040513d602081101561053757600080fd5b8101908080519060200190929190505050151561055357600080fd5b5050505600a165627a7a723058200e903ac7b291017890eaa4eee60461c79427ac860f7a79ea5dff4c62263f82c50029a165627a7a72305820a93d6ba825f85c7c7a2b1293598ca0c11eb6b6ee833e9f15c600f81e18f8c9790029a165627a7a72305820c9e46853d8bfb663b8710f1f4e1897927ce11daa627fb53fa3397c2f5a34665b0029",
  "source": "pragma solidity ^0.4.24;\nimport \"../node_modules/openzeppelin-solidity/contracts/math/SafeMath.sol\";\nimport \"../node_modules/openzeppelin-solidity/contracts/ownership/Ownable.sol\";\nimport \"./ParticipantManager.sol\";\n//import \"./Roles.sol\";\n//import \"./RBAC.sol\";\n\n\n\ncontract ParticipantFactory is Ownable /* , RBAC */{\n\n    using SafeMath for uint;\n    using SafeMath for int;\n   \n    address[] public participantsList;\n   \n    address public FACTORY_OWNER;\n    address public DEFAULT_VALIDATOR;\n\n    \n    mapping(address => uint) public participantConsumption;\n    mapping(address => uint) public participantContribution;\n    mapping(address => uint) public participantIncome;\n   \n    \n    address validator;\n    address tokenAddress;\n    uint public test;\n    \n    event newParticipantCreated (address indexed newParticipantAddress, address indexed owner);\n    \n    constructor(address _tokenAddress) public{\n        FACTORY_OWNER = msg.sender;\n        DEFAULT_VALIDATOR = msg.sender;\n        tokenAddress = _tokenAddress;\n       // addRole(this,\"FOUNDATION\");\n        \n    }\n    \n \n    //address defaultFactoryOwner = 0xca35b7d915458ef540ade6068dfe2f44e8fa733c;\n    string DEFAULT_TYPE=\"A\";\n    string DEFAULT_PARTICIPANT_NAME=\"GUIFI\";\n    \n    function createChildParticipant(address _participantOwner) public onlyOwner {\n      // insert check if the sent ether is enough to cover the car asset ...\n        address newParticipant = new ParticipantManager(DEFAULT_PARTICIPANT_NAME, _participantOwner,this, FACTORY_OWNER, DEFAULT_VALIDATOR, tokenAddress);            \n        participantsList.push(newParticipant);   \n        emit newParticipantCreated(newParticipant, _participantOwner);\n   }\n\n   function getDeployedParticipantContracts() public view returns (address[]) {\n      return participantsList;\n   }\n   \n   \n    /*function getPair(uint8 i) constant public returns (address _participant, address _owner) {\n\n        return (pairParticipantsOwners[i][0],pairParticipantsOwners[i][1]);\n    }*/\n    \n    \n    function setNewExpense (address _participant, uint _expense) public {\n       \n        participantContribution[_participant] =  participantContribution[_participant].add(_expense);\n      \n        \n    }\n    \n     \n    \n    \n    \n}\n\n",
  "sourcePath": "/home/democritus/Documents/Projects/ScipioPlatform/ethereum/contracts/ParticipantFactory.sol",
  "compiler": {
    "name": "solc",
    "version": "0.4.24+commit.e67f0147.Emscripten.clang"
  },
  "schemaVersion": "2.0.1",
  "updatedAt": "2018-08-15T16:33:59.467Z"
}