{
  "contractName": "ParticipantFactory",
  "abi": [
    {
      "constant": true,
      "inputs": [
        {
          "name": "",
          "type": "uint256"
        }
      ],
      "name": "participantsList",
      "outputs": [
        {
          "name": "",
          "type": "address"
        }
      ],
      "payable": false,
      "stateMutability": "view",
      "type": "function"
    },
    {
      "constant": true,
      "inputs": [
        {
          "name": "",
          "type": "address"
        }
      ],
      "name": "participantContribution",
      "outputs": [
        {
          "name": "",
          "type": "uint256"
        }
      ],
      "payable": false,
      "stateMutability": "view",
      "type": "function"
    },
    {
      "constant": true,
      "inputs": [],
      "name": "FACTORY_OWNER",
      "outputs": [
        {
          "name": "",
          "type": "address"
        }
      ],
      "payable": false,
      "stateMutability": "view",
      "type": "function"
    },
    {
      "constant": false,
      "inputs": [],
      "name": "renounceOwnership",
      "outputs": [],
      "payable": false,
      "stateMutability": "nonpayable",
      "type": "function"
    },
    {
      "constant": true,
      "inputs": [],
      "name": "owner",
      "outputs": [
        {
          "name": "",
          "type": "address"
        }
      ],
      "payable": false,
      "stateMutability": "view",
      "type": "function"
    },
    {
      "constant": true,
      "inputs": [
        {
          "name": "",
          "type": "address"
        }
      ],
      "name": "isParticipant",
      "outputs": [
        {
          "name": "",
          "type": "bool"
        }
      ],
      "payable": false,
      "stateMutability": "view",
      "type": "function"
    },
    {
      "constant": true,
      "inputs": [
        {
          "name": "",
          "type": "address"
        }
      ],
      "name": "participantConsumption",
      "outputs": [
        {
          "name": "",
          "type": "uint256"
        }
      ],
      "payable": false,
      "stateMutability": "view",
      "type": "function"
    },
    {
      "constant": true,
      "inputs": [
        {
          "name": "",
          "type": "address"
        }
      ],
      "name": "participantIncome",
      "outputs": [
        {
          "name": "",
          "type": "uint256"
        }
      ],
      "payable": false,
      "stateMutability": "view",
      "type": "function"
    },
    {
      "constant": false,
      "inputs": [
        {
          "name": "_newOwner",
          "type": "address"
        }
      ],
      "name": "transferOwnership",
      "outputs": [],
      "payable": false,
      "stateMutability": "nonpayable",
      "type": "function"
    },
    {
      "constant": true,
      "inputs": [],
      "name": "DEFAULT_VALIDATOR",
      "outputs": [
        {
          "name": "",
          "type": "address"
        }
      ],
      "payable": false,
      "stateMutability": "view",
      "type": "function"
    },
    {
      "constant": true,
      "inputs": [],
      "name": "test",
      "outputs": [
        {
          "name": "",
          "type": "uint256"
        }
      ],
      "payable": false,
      "stateMutability": "view",
      "type": "function"
    },
    {
      "inputs": [
        {
          "name": "_tokenAddress",
          "type": "address"
        }
      ],
      "payable": false,
      "stateMutability": "nonpayable",
      "type": "constructor"
    },
    {
      "anonymous": false,
      "inputs": [
        {
          "indexed": true,
          "name": "newParticipantAddress",
          "type": "address"
        },
        {
          "indexed": true,
          "name": "owner",
          "type": "address"
        }
      ],
      "name": "newParticipantCreated",
      "type": "event"
    },
    {
      "anonymous": false,
      "inputs": [
        {
          "indexed": true,
          "name": "previousOwner",
          "type": "address"
        }
      ],
      "name": "OwnershipRenounced",
      "type": "event"
    },
    {
      "anonymous": false,
      "inputs": [
        {
          "indexed": true,
          "name": "previousOwner",
          "type": "address"
        },
        {
          "indexed": true,
          "name": "newOwner",
          "type": "address"
        }
      ],
      "name": "OwnershipTransferred",
      "type": "event"
    },
    {
      "constant": false,
      "inputs": [
        {
          "name": "_nameParticipant",
          "type": "string"
        },
        {
          "name": "_participantOwner",
          "type": "address"
        }
      ],
      "name": "createChildParticipant",
      "outputs": [],
      "payable": false,
      "stateMutability": "nonpayable",
      "type": "function"
    },
    {
      "constant": true,
      "inputs": [],
      "name": "getDeployedParticipantContracts",
      "outputs": [
        {
          "name": "",
          "type": "address[]"
        }
      ],
      "payable": false,
      "stateMutability": "view",
      "type": "function"
    },
    {
      "constant": false,
      "inputs": [
        {
          "name": "_participant",
          "type": "address"
        },
        {
          "name": "_expense",
          "type": "uint256"
        }
      ],
      "name": "setNewExpense",
      "outputs": [
        {
          "name": "success",
          "type": "bool"
        }
      ],
      "payable": false,
      "stateMutability": "nonpayable",
      "type": "function"
    },
    {
      "constant": false,
      "inputs": [
        {
          "name": "_participant",
          "type": "address"
        },
        {
          "name": "_contribution",
          "type": "uint256"
        }
      ],
      "name": "setNewConsumption",
      "outputs": [
        {
          "name": "success",
          "type": "bool"
        }
      ],
      "payable": false,
      "stateMutability": "nonpayable",
      "type": "function"
    }
  ],
  "bytecode": "0x60806040526040805190810160405280600181526020017f4100000000000000000000000000000000000000000000000000000000000000815250600b908051906020019062000051929190620001db565b506040805190810160405280600581526020017f4755494649000000000000000000000000000000000000000000000000000000815250600c90805190602001906200009f929190620001db565b50348015620000ad57600080fd5b50604051602080620046f083398101806040528101908080519060200190929190505050336000806101000a81548173ffffffffffffffffffffffffffffffffffffffff021916908373ffffffffffffffffffffffffffffffffffffffff16021790555033600260006101000a81548173ffffffffffffffffffffffffffffffffffffffff021916908373ffffffffffffffffffffffffffffffffffffffff16021790555033600360006101000a81548173ffffffffffffffffffffffffffffffffffffffff021916908373ffffffffffffffffffffffffffffffffffffffff16021790555080600960006101000a81548173ffffffffffffffffffffffffffffffffffffffff021916908373ffffffffffffffffffffffffffffffffffffffff160217905550506200028a565b828054600181600116156101000203166002900490600052602060002090601f016020900481019282601f106200021e57805160ff19168380011785556200024f565b828001600101855582156200024f579182015b828111156200024e57825182559160200191906001019062000231565b5b5090506200025e919062000262565b5090565b6200028791905b808211156200028357600081600090555060010162000269565b5090565b90565b614456806200029a6000396000f300608060405260043610620000eb576000357c0100000000000000000000000000000000000000000000000000000000900463ffffffff1680630b83600b14620000f05780632820aece146200017c57806333c74e7914620001ec5780635554ea3414620002465780635935cbfe14620002ae578063715018a614620003085780638da5cb5b1462000322578063929066f5146200037c578063a203536114620003da578063bd67189b1462000434578063d3f696f2146200048e578063e2c990a914620004f6578063f2fde38b1462000567578063f43e925914620005ad578063f8a8fd6d1462000607575b600080fd5b348015620000fd57600080fd5b506200017a600480360381019080803590602001908201803590602001908080601f0160208091040260200160405190810160405280939291908181526020018383808284378201915050505050509192919290803573ffffffffffffffffffffffffffffffffffffffff16906020019092919050505062000635565b005b3480156200018957600080fd5b50620001aa60048036038101908080359060200190929190505050620009b7565b604051808273ffffffffffffffffffffffffffffffffffffffff1673ffffffffffffffffffffffffffffffffffffffff16815260200191505060405180910390f35b348015620001f957600080fd5b5062000230600480360381019080803573ffffffffffffffffffffffffffffffffffffffff169060200190929190505050620009f6565b6040518082815260200191505060405180910390f35b3480156200025357600080fd5b5062000294600480360381019080803573ffffffffffffffffffffffffffffffffffffffff1690602001909291908035906020019092919050505062000a0e565b604051808215151515815260200191505060405180910390f35b348015620002bb57600080fd5b50620002c662000b11565b604051808273ffffffffffffffffffffffffffffffffffffffff1673ffffffffffffffffffffffffffffffffffffffff16815260200191505060405180910390f35b3480156200031557600080fd5b506200032062000b37565b005b3480156200032f57600080fd5b506200033a62000c3a565b604051808273ffffffffffffffffffffffffffffffffffffffff1673ffffffffffffffffffffffffffffffffffffffff16815260200191505060405180910390f35b3480156200038957600080fd5b50620003c0600480360381019080803573ffffffffffffffffffffffffffffffffffffffff16906020019092919050505062000c5f565b604051808215151515815260200191505060405180910390f35b348015620003e757600080fd5b506200041e600480360381019080803573ffffffffffffffffffffffffffffffffffffffff16906020019092919050505062000c7f565b6040518082815260200191505060405180910390f35b3480156200044157600080fd5b5062000478600480360381019080803573ffffffffffffffffffffffffffffffffffffffff16906020019092919050505062000c97565b6040518082815260200191505060405180910390f35b3480156200049b57600080fd5b50620004dc600480360381019080803573ffffffffffffffffffffffffffffffffffffffff1690602001909291908035906020019092919050505062000caf565b604051808215151515815260200191505060405180910390f35b3480156200050357600080fd5b506200050e62000d52565b6040518080602001828103825283818151815260200191508051906020019060200280838360005b838110156200055357808201518184015260208101905062000536565b505050509050019250505060405180910390f35b3480156200057457600080fd5b50620005ab600480360381019080803573ffffffffffffffffffffffffffffffffffffffff16906020019092919050505062000de2565b005b348015620005ba57600080fd5b50620005c562000e4c565b604051808273ffffffffffffffffffffffffffffffffffffffff1673ffffffffffffffffffffffffffffffffffffffff16815260200191505060405180910390f35b3480156200061457600080fd5b506200061f62000e72565b6040518082815260200191505060405180910390f35b60008060009054906101000a900473ffffffffffffffffffffffffffffffffffffffff1673ffffffffffffffffffffffffffffffffffffffff163373ffffffffffffffffffffffffffffffffffffffff161415156200069357600080fd5b828230600260009054906101000a900473ffffffffffffffffffffffffffffffffffffffff16600360009054906101000a900473ffffffffffffffffffffffffffffffffffffffff16600960009054906101000a900473ffffffffffffffffffffffffffffffffffffffff166200070962000f90565b80806020018773ffffffffffffffffffffffffffffffffffffffff1673ffffffffffffffffffffffffffffffffffffffff1681526020018673ffffffffffffffffffffffffffffffffffffffff1673ffffffffffffffffffffffffffffffffffffffff1681526020018573ffffffffffffffffffffffffffffffffffffffff1673ffffffffffffffffffffffffffffffffffffffff1681526020018473ffffffffffffffffffffffffffffffffffffffff1673ffffffffffffffffffffffffffffffffffffffff1681526020018373ffffffffffffffffffffffffffffffffffffffff1673ffffffffffffffffffffffffffffffffffffffff168152602001828103825288818151815260200191508051906020019080838360005b838110156200084257808201518184015260208101905062000825565b50505050905090810190601f168015620008705780820380516001836020036101000a031916815260200191505b50975050505050505050604051809103906000f08015801562000897573d6000803e3d6000fd5b50905060018190806001815401808255809150509060018203906000526020600020016000909192909190916101000a81548173ffffffffffffffffffffffffffffffffffffffff021916908373ffffffffffffffffffffffffffffffffffffffff160217905550506001600760008373ffffffffffffffffffffffffffffffffffffffff1673ffffffffffffffffffffffffffffffffffffffff16815260200190815260200160002060006101000a81548160ff0219169083151502179055508173ffffffffffffffffffffffffffffffffffffffff168173ffffffffffffffffffffffffffffffffffffffff167fe606c3eb7e443ca56f2f79d6d54f46f178391313f4482177389ee9e91efdaa6760405160405180910390a3505050565b600181815481101515620009c757fe5b906000526020600020016000915054906101000a900473ffffffffffffffffffffffffffffffffffffffff1681565b60056020528060005260406000206000915090505481565b600060011515600760008573ffffffffffffffffffffffffffffffffffffffff1673ffffffffffffffffffffffffffffffffffffffff16815260200190815260200160002060009054906101000a900460ff16151514151562000a7057600080fd5b62000ac482600460008673ffffffffffffffffffffffffffffffffffffffff1673ffffffffffffffffffffffffffffffffffffffff1681526020019081526020016000205462000e7890919063ffffffff16565b600460008573ffffffffffffffffffffffffffffffffffffffff1673ffffffffffffffffffffffffffffffffffffffff168152602001908152602001600020819055506001905092915050565b600260009054906101000a900473ffffffffffffffffffffffffffffffffffffffff1681565b6000809054906101000a900473ffffffffffffffffffffffffffffffffffffffff1673ffffffffffffffffffffffffffffffffffffffff163373ffffffffffffffffffffffffffffffffffffffff1614151562000b9357600080fd5b6000809054906101000a900473ffffffffffffffffffffffffffffffffffffffff1673ffffffffffffffffffffffffffffffffffffffff167ff8df31144d9c2f0f6b59d69b8b98abd5459d07f2742c4df920b25aae33c6482060405160405180910390a260008060006101000a81548173ffffffffffffffffffffffffffffffffffffffff021916908373ffffffffffffffffffffffffffffffffffffffff160217905550565b6000809054906101000a900473ffffffffffffffffffffffffffffffffffffffff1681565b60076020528060005260406000206000915054906101000a900460ff1681565b60046020528060005260406000206000915090505481565b60066020528060005260406000206000915090505481565b600062000d0582600560008673ffffffffffffffffffffffffffffffffffffffff1673ffffffffffffffffffffffffffffffffffffffff1681526020019081526020016000205462000e7890919063ffffffff16565b600560008573ffffffffffffffffffffffffffffffffffffffff1673ffffffffffffffffffffffffffffffffffffffff168152602001908152602001600020819055506001905092915050565b6060600180548060200260200160405190810160405280929190818152602001828054801562000dd857602002820191906000526020600020905b8160009054906101000a900473ffffffffffffffffffffffffffffffffffffffff1673ffffffffffffffffffffffffffffffffffffffff168152602001906001019080831162000d8d575b5050505050905090565b6000809054906101000a900473ffffffffffffffffffffffffffffffffffffffff1673ffffffffffffffffffffffffffffffffffffffff163373ffffffffffffffffffffffffffffffffffffffff1614151562000e3e57600080fd5b62000e498162000e95565b50565b600360009054906101000a900473ffffffffffffffffffffffffffffffffffffffff1681565b600a5481565b6000818301905082811015151562000e8c57fe5b80905092915050565b600073ffffffffffffffffffffffffffffffffffffffff168173ffffffffffffffffffffffffffffffffffffffff161415151562000ed257600080fd5b8073ffffffffffffffffffffffffffffffffffffffff166000809054906101000a900473ffffffffffffffffffffffffffffffffffffffff1673ffffffffffffffffffffffffffffffffffffffff167f8be0079c531659141344cd1fd0a4f28419497f9722a3daafe3b4186f6b6457e060405160405180910390a3806000806101000a81548173ffffffffffffffffffffffffffffffffffffffff021916908373ffffffffffffffffffffffffffffffffffffffff16021790555050565b6040516134898062000fa2833901905600608060405230600360006101000a81548173ffffffffffffffffffffffffffffffffffffffff021916908373ffffffffffffffffffffffffffffffffffffffff160217905550600360009054906101000a900473ffffffffffffffffffffffffffffffffffffffff1673ffffffffffffffffffffffffffffffffffffffff1631600e5560016011553480156200009457600080fd5b50604051620034893803806200348983398101806040528101908080518201929190602001805190602001909291908051906020019092919080519060200190929190805190602001909291908051906020019092919050505085600c908051906020019062000106929190620002d9565b5084600260006101000a81548173ffffffffffffffffffffffffffffffffffffffff021916908373ffffffffffffffffffffffffffffffffffffffff16021790555083600460006101000a81548173ffffffffffffffffffffffffffffffffffffffff021916908373ffffffffffffffffffffffffffffffffffffffff16021790555082600560006101000a81548173ffffffffffffffffffffffffffffffffffffffff021916908373ffffffffffffffffffffffffffffffffffffffff16021790555081600660006101000a81548173ffffffffffffffffffffffffffffffffffffffff021916908373ffffffffffffffffffffffffffffffffffffffff160217905550836000806101000a81548173ffffffffffffffffffffffffffffffffffffffff021916908373ffffffffffffffffffffffffffffffffffffffff16021790555080600160006101000a81548173ffffffffffffffffffffffffffffffffffffffff021916908373ffffffffffffffffffffffffffffffffffffffff16021790555080600760006101000a81548173ffffffffffffffffffffffffffffffffffffffff021916908373ffffffffffffffffffffffffffffffffffffffff16021790555050505050505062000388565b828054600181600116156101000203166002900490600052602060002090601f016020900481019282601f106200031c57805160ff19168380011785556200034d565b828001600101855582156200034d579182015b828111156200034c5782518255916020019190600101906200032f565b5b5090506200035c919062000360565b5090565b6200038591905b808211156200038157600081600090555060010162000367565b5090565b90565b6130f180620003986000396000f3006080604052600436106101c2576000357c0100000000000000000000000000000000000000000000000000000000900463ffffffff16806304922862146101c45780630b015029146102095780631456979f146102605780631e6b7f8e146102bb5780631ff94ed21461032857806322b8d4bd1461037f5780632def7cfd146103ac57806335b11b9a146103d75780633a5381b5146104045780633de976ed1461045b5780634051ddac146104dc5780634273601c146105ee5780634462866b146106455780635acee03514610670578063633e8c98146106b557806365d26a9c146106fa5780636dc906ca14610725578063732e0a1d1461075457806374125dbf146107ab57806378c6506a1461083b578063823a65f51461094d57806389e0e9b71461098e5780638f081ece146109d35780638f21f59a146109fe578063a0dca3b514610a29578063ad99bcb014610a80578063af4afe0a14610ad7578063b44e8bd214610b2a578063b6d40bc714610b81578063b7e78f7f14610bae578063c0abda2a14610bfd578063c6c85ca514610ce1578063ce4d01a314610d26578063cf35bdd014610d53578063d808620314610ea8578063e3b73d3e14610ed3575b005b3480156101d057600080fd5b506101ef60048036038101908080359060200190929190505050610f63565b604051808215151515815260200191505060405180910390f35b34801561021557600080fd5b5061021e6110ef565b604051808273ffffffffffffffffffffffffffffffffffffffff1673ffffffffffffffffffffffffffffffffffffffff16815260200191505060405180910390f35b34801561026c57600080fd5b506102a1600480360381019080803573ffffffffffffffffffffffffffffffffffffffff169060200190929190505050611115565b604051808215151515815260200191505060405180910390f35b3480156102c757600080fd5b506102e6600480360381019080803590602001909291905050506111bd565b604051808273ffffffffffffffffffffffffffffffffffffffff1673ffffffffffffffffffffffffffffffffffffffff16815260200191505060405180910390f35b34801561033457600080fd5b5061033d6111fb565b604051808273ffffffffffffffffffffffffffffffffffffffff1673ffffffffffffffffffffffffffffffffffffffff16815260200191505060405180910390f35b34801561038b57600080fd5b506103aa60048036038101908080359060200190929190505050611221565b005b3480156103b857600080fd5b506103c1611266565b6040518082815260200191505060405180910390f35b3480156103e357600080fd5b506104026004803603810190808035906020019092919050505061126c565b005b34801561041057600080fd5b506104196112b1565b604051808273ffffffffffffffffffffffffffffffffffffffff1673ffffffffffffffffffffffffffffffffffffffff16815260200191505060405180910390f35b34801561046757600080fd5b506104c2600480360381019080803590602001908201803590602001908080601f01602080910402602001604051908101604052809392919081815260200183838082843782019150505050505091929192905050506112d7565b604051808215151515815260200191505060405180910390f35b3480156104e857600080fd5b506104f16113d7565b604051808873ffffffffffffffffffffffffffffffffffffffff1673ffffffffffffffffffffffffffffffffffffffff168152602001806020018773ffffffffffffffffffffffffffffffffffffffff1673ffffffffffffffffffffffffffffffffffffffff168152602001868152602001858152602001848152602001838152602001828103825288818151815260200191508051906020019080838360005b838110156105ad578082015181840152602081019050610592565b50505050905090810190601f1680156105da5780820380516001836020036101000a031916815260200191505b509850505050505050505060405180910390f35b3480156105fa57600080fd5b506106036114ea565b604051808273ffffffffffffffffffffffffffffffffffffffff1673ffffffffffffffffffffffffffffffffffffffff16815260200191505060405180910390f35b34801561065157600080fd5b5061065a611510565b6040518082815260200191505060405180910390f35b34801561067c57600080fd5b5061069b60048036038101908080359060200190929190505050611516565b604051808215151515815260200191505060405180910390f35b3480156106c157600080fd5b506106e0600480360381019080803590602001909291905050506116a3565b604051808215151515815260200191505060405180910390f35b34801561070657600080fd5b5061070f61186f565b6040518082815260200191505060405180910390f35b34801561073157600080fd5b5061073a611875565b604051808215151515815260200191505060405180910390f35b34801561076057600080fd5b50610769611a7a565b604051808273ffffffffffffffffffffffffffffffffffffffff1673ffffffffffffffffffffffffffffffffffffffff16815260200191505060405180910390f35b3480156107b757600080fd5b506107c0611aa0565b6040518080602001828103825283818151815260200191508051906020019080838360005b838110156108005780820151818401526020810190506107e5565b50505050905090810190601f16801561082d5780820380516001836020036101000a031916815260200191505b509250505060405180910390f35b34801561084757600080fd5b50610933600480360381019080803590602001908201803590602001908080601f0160208091040260200160405190810160405280939291908181526020018383808284378201915050505050509192919290803590602001908201803590602001908080601f016020809104026020016040519081016040528093929190818152602001838380828437820191505050505050919291929080359060200190929190803590602001909291908035906020019092919080351515906020019092919080359060200190929190803560ff16906020019092919080359060200190929190505050611b3e565b604051808215151515815260200191505060405180910390f35b34801561095957600080fd5b5061097860048036038101908080359060200190929190505050611d4b565b6040518082815260200191505060405180910390f35b34801561099a57600080fd5b506109b960048036038101908080359060200190929190505050611d8d565b604051808215151515815260200191505060405180910390f35b3480156109df57600080fd5b506109e8611f43565b6040518082815260200191505060405180910390f35b348015610a0a57600080fd5b50610a13611f49565b6040518082815260200191505060405180910390f35b348015610a3557600080fd5b50610a6a600480360381019080803573ffffffffffffffffffffffffffffffffffffffff169060200190929190505050611f4f565b6040518082815260200191505060405180910390f35b348015610a8c57600080fd5b50610ac1600480360381019080803573ffffffffffffffffffffffffffffffffffffffff169060200190929190505050611f67565b6040518082815260200191505060405180910390f35b348015610ae357600080fd5b50610b0260048036038101908080359060200190929190505050611f7f565b6040518084815260200183815260200182151515158152602001935050505060405180910390f35b348015610b3657600080fd5b50610b3f611fb6565b604051808273ffffffffffffffffffffffffffffffffffffffff1673ffffffffffffffffffffffffffffffffffffffff16815260200191505060405180910390f35b348015610b8d57600080fd5b50610bac60048036038101908080359060200190929190505050611fdc565b005b348015610bba57600080fd5b50610be36004803603810190808035906020019092919080359060200190929190505050612021565b604051808215151515815260200191505060405180910390f35b348015610c0957600080fd5b50610c286004803603810190808035906020019092919050505061227e565b60405180806020018473ffffffffffffffffffffffffffffffffffffffff1673ffffffffffffffffffffffffffffffffffffffff16815260200183151515158152602001828103825285818151815260200191508051906020019080838360005b83811015610ca4578082015181840152602081019050610c89565b50505050905090810190601f168015610cd15780820380516001836020036101000a031916815260200191505b5094505050505060405180910390f35b348015610ced57600080fd5b50610d0c6004803603810190808035906020019092919050505061237c565b604051808215151515815260200191505060405180910390f35b348015610d3257600080fd5b50610d51600480360381019080803590602001909291905050506123ea565b005b348015610d5f57600080fd5b50610d7e60048036038101908080359060200190929190505050612629565b6040518080602001806020018a815260200189815260200188815260200187151515158152602001868152602001856006811115610db857fe5b60ff16815260200184815260200183810383528c818151815260200191508051906020019080838360005b83811015610dfe578082015181840152602081019050610de3565b50505050905090810190601f168015610e2b5780820380516001836020036101000a031916815260200191505b5083810382528b818151815260200191508051906020019080838360005b83811015610e64578082015181840152602081019050610e49565b50505050905090810190601f168015610e915780820380516001836020036101000a031916815260200191505b509b50505050505050505050505060405180910390f35b348015610eb457600080fd5b50610ebd6127d0565b6040518082815260200191505060405180910390f35b348015610edf57600080fd5b50610ee86127d6565b6040518080602001828103825283818151815260200191508051906020019080838360005b83811015610f28578082015181840152602081019050610f0d565b50505050905090810190601f168015610f555780820380516001836020036101000a031916815260200191505b509250505060405180910390f35b6000600160009054906101000a900473ffffffffffffffffffffffffffffffffffffffff1673ffffffffffffffffffffffffffffffffffffffff166323b872dd3330856040518463ffffffff167c0100000000000000000000000000000000000000000000000000000000028152600401808473ffffffffffffffffffffffffffffffffffffffff1673ffffffffffffffffffffffffffffffffffffffff1681526020018373ffffffffffffffffffffffffffffffffffffffff1673ffffffffffffffffffffffffffffffffffffffff1681526020018281526020019350505050602060405180830381600087803b15801561105e57600080fd5b505af1158015611072573d6000803e3d6000fd5b505050506040513d602081101561108857600080fd5b81019080805190602001909291905050505081600960003373ffffffffffffffffffffffffffffffffffffffff1673ffffffffffffffffffffffffffffffffffffffff16815260200190815260200160002060008282540192505081905550809050919050565b600260009054906101000a900473ffffffffffffffffffffffffffffffffffffffff1681565b6000600560009054906101000a900473ffffffffffffffffffffffffffffffffffffffff1673ffffffffffffffffffffffffffffffffffffffff163373ffffffffffffffffffffffffffffffffffffffff1614151561117357600080fd5b81600660006101000a81548173ffffffffffffffffffffffffffffffffffffffff021916908373ffffffffffffffffffffffffffffffffffffffff16021790555060019050919050565b600a818154811015156111cc57fe5b906000526020600020016000915054906101000a900473ffffffffffffffffffffffffffffffffffffffff1681565b600760009054906101000a900473ffffffffffffffffffffffffffffffffffffffff1681565b600160168281548110151561123257fe5b906000526020600020906009020160070160006101000a81548160ff0219169083600681111561125e57fe5b021790555050565b60105481565b600060168281548110151561127d57fe5b906000526020600020906009020160070160006101000a81548160ff021916908360068111156112a957fe5b021790555050565b600660009054906101000a900473ffffffffffffffffffffffffffffffffffffffff1681565b60006112e1612890565b6060604051908101604052808481526020013373ffffffffffffffffffffffffffffffffffffffff1681526020016001151581525090506017819080600181540180825580915050906001820390600052602060002090600202016000909192909190915060008201518160000190805190602001906113629291906128ca565b5060208201518160010160006101000a81548173ffffffffffffffffffffffffffffffffffffffff021916908373ffffffffffffffffffffffffffffffffffffffff16021790555060408201518160010160146101000a81548160ff0219169083151502179055505050506001915050919050565b600060606000806000806000600260009054906101000a900473ffffffffffffffffffffffffffffffffffffffff16600c600660009054906101000a900473ffffffffffffffffffffffffffffffffffffffff16600e54600f54601254601054858054600181600116156101000203166002900480601f0160208091040260200160405190810160405280929190818152602001828054600181600116156101000203166002900480156114cc5780601f106114a1576101008083540402835291602001916114cc565b820191906000526020600020905b8154815290600101906020018083116114af57829003601f168201915b50505050509550965096509650965096509650965090919293949596565b600560009054906101000a900473ffffffffffffffffffffffffffffffffffffffff1681565b600d5481565b6000600260009054906101000a900473ffffffffffffffffffffffffffffffffffffffff1673ffffffffffffffffffffffffffffffffffffffff163373ffffffffffffffffffffffffffffffffffffffff1614151561157457600080fd5b6012600081548092919060010191905055601381905550606060405190810160405280601354815260200183815260200160001515815250601460006013548152602001908152602001600020600082015181600001556020820151816001015560408201518160020160006101000a81548160ff02191690831515021790555090505061160d82600d5461287490919063ffffffff16565b600d81905550600660009054906101000a900473ffffffffffffffffffffffffffffffffffffffff1673ffffffffffffffffffffffffffffffffffffffff163073ffffffffffffffffffffffffffffffffffffffff167f7a2590a948e6ad1ff886f59d243098b6ca9e9f4a075ee752b0554ea825ebda49846040518082815260200191505060405180910390a360019050919050565b6000600260009054906101000a900473ffffffffffffffffffffffffffffffffffffffff1673ffffffffffffffffffffffffffffffffffffffff163373ffffffffffffffffffffffffffffffffffffffff1614151561170157600080fd5b816010600082825401925050819055506000809054906101000a900473ffffffffffffffffffffffffffffffffffffffff1673ffffffffffffffffffffffffffffffffffffffff16635554ea3430846040518363ffffffff167c0100000000000000000000000000000000000000000000000000000000028152600401808373ffffffffffffffffffffffffffffffffffffffff1673ffffffffffffffffffffffffffffffffffffffff16815260200182815260200192505050602060405180830381600087803b1580156117d557600080fd5b505af11580156117e9573d6000803e3d6000fd5b505050506040513d60208110156117ff57600080fd5b8101908080519060200190929190505050503073ffffffffffffffffffffffffffffffffffffffff167f255d874acfb0dac021cd28e22135719dfebbdcf3963f9097e84f11d4dcc4c00c8342604051808381526020018281526020019250505060405180910390a2809050919050565b600f5481565b600080600260009054906101000a900473ffffffffffffffffffffffffffffffffffffffff1673ffffffffffffffffffffffffffffffffffffffff163373ffffffffffffffffffffffffffffffffffffffff161415156118d457600080fd5b60115430600160009054906101000a900473ffffffffffffffffffffffffffffffffffffffff1661190361294a565b808481526020018373ffffffffffffffffffffffffffffffffffffffff1673ffffffffffffffffffffffffffffffffffffffff1681526020018273ffffffffffffffffffffffffffffffffffffffff1673ffffffffffffffffffffffffffffffffffffffff1681526020019350505050604051809103906000f08015801561198f573d6000803e3d6000fd5b509050600a8190806001815401808255809150509060018203906000526020600020016000909192909190916101000a81548173ffffffffffffffffffffffffffffffffffffffff021916908373ffffffffffffffffffffffffffffffffffffffff160217905550503073ffffffffffffffffffffffffffffffffffffffff167f5528ae0c6ec6957c4383f9b61c3d69630f26d6ea3a4334531a6a606c637d9fcc82604051808273ffffffffffffffffffffffffffffffffffffffff1673ffffffffffffffffffffffffffffffffffffffff16815260200191505060405180910390a2600191505090565b600460009054906101000a900473ffffffffffffffffffffffffffffffffffffffff1681565b600c8054600181600116156101000203166002900480601f016020809104026020016040519081016040528092919081815260200182805460018160011615610100020316600290048015611b365780601f10611b0b57610100808354040283529160200191611b36565b820191906000526020600020905b815481529060010190602001808311611b1957829003601f168201915b505050505081565b6000611b4861295a565b600260009054906101000a900473ffffffffffffffffffffffffffffffffffffffff1673ffffffffffffffffffffffffffffffffffffffff163373ffffffffffffffffffffffffffffffffffffffff16141515611ba457600080fd5b610120604051908101604052808c81526020018b81526020018a81526020018981526020018881526020018715158152602001868152602001856006811115611be957fe5b8152602001848152509050601681908060018154018082558091505090600182039060005260206000209060090201600090919290919091506000820151816000019080519060200190611c3e9291906128ca565b506020820151816001019080519060200190611c5b9291906128ca565b5060408201518160020155606082015181600301556080820151816004015560a08201518160050160006101000a81548160ff02191690831515021790555060c0820151816006015560e08201518160070160006101000a81548160ff02191690836006811115611cc857fe5b021790555061010082015181600801555050503073ffffffffffffffffffffffffffffffffffffffff167fb5c64349e05114627c17bd9d24a1c352873fc266dad444db9a3103fcbb415a3482604001518360600151604051808381526020018281526020019250505060405180910390a260019150509998505050505050505050565b6000601682815481101515611d5c57fe5b906000526020600020906009020160070160009054906101000a900460ff166006811115611d8657fe5b9050919050565b6000600260009054906101000a900473ffffffffffffffffffffffffffffffffffffffff1673ffffffffffffffffffffffffffffffffffffffff163373ffffffffffffffffffffffffffffffffffffffff16141515611deb57600080fd5b600160009054906101000a900473ffffffffffffffffffffffffffffffffffffffff1673ffffffffffffffffffffffffffffffffffffffff166340c10f1930846040518363ffffffff167c0100000000000000000000000000000000000000000000000000000000028152600401808373ffffffffffffffffffffffffffffffffffffffff1673ffffffffffffffffffffffffffffffffffffffff16815260200182815260200192505050602060405180830381600087803b158015611eb057600080fd5b505af1158015611ec4573d6000803e3d6000fd5b505050506040513d6020811015611eda57600080fd5b8101908080519060200190929190505050503073ffffffffffffffffffffffffffffffffffffffff167f735325922b6822c5e3ee965f6dcb4193a10a646ca799d2fecdf3674a029b3dc2836040518082815260200191505060405180910390a260019050919050565b60125481565b600e5481565b60096020528060005260406000206000915090505481565b60156020528060005260406000206000915090505481565b60146020528060005260406000206000915090508060000154908060010154908060020160009054906101000a900460ff16905083565b600360009054906101000a900473ffffffffffffffffffffffffffffffffffffffff1681565b6002601682815481101515611fed57fe5b906000526020600020906009020160070160006101000a81548160ff0219169083600681111561201957fe5b021790555050565b6000600260009054906101000a900473ffffffffffffffffffffffffffffffffffffffff1673ffffffffffffffffffffffffffffffffffffffff163373ffffffffffffffffffffffffffffffffffffffff1614151561207f57600080fd5b600160009054906101000a900473ffffffffffffffffffffffffffffffffffffffff1673ffffffffffffffffffffffffffffffffffffffff1663a9059cbb600a858154811015156120cc57fe5b9060005260206000200160009054906101000a900473ffffffffffffffffffffffffffffffffffffffff16846040518363ffffffff167c0100000000000000000000000000000000000000000000000000000000028152600401808373ffffffffffffffffffffffffffffffffffffffff1673ffffffffffffffffffffffffffffffffffffffff16815260200182815260200192505050602060405180830381600087803b15801561217d57600080fd5b505af1158015612191573d6000803e3d6000fd5b505050506040513d60208110156121a757600080fd5b8101908080519060200190929190505050503073ffffffffffffffffffffffffffffffffffffffff167f9924fada74a13651a82adbcc802853518abec01adb48d06fcc7d648703b7180f600a8581548110151561220057fe5b9060005260206000200160009054906101000a900473ffffffffffffffffffffffffffffffffffffffff1684604051808373ffffffffffffffffffffffffffffffffffffffff1673ffffffffffffffffffffffffffffffffffffffff1681526020018281526020019250505060405180910390a26001905092915050565b60178181548110151561228d57fe5b9060005260206000209060020201600091509050806000018054600181600116156101000203166002900480601f0160208091040260200160405190810160405280929190818152602001828054600181600116156101000203166002900480156123395780601f1061230e57610100808354040283529160200191612339565b820191906000526020600020905b81548152906001019060200180831161231c57829003601f168201915b5050505050908060010160009054906101000a900473ffffffffffffffffffffffffffffffffffffffff16908060010160149054906101000a900460ff16905083565b6000600260009054906101000a900473ffffffffffffffffffffffffffffffffffffffff1673ffffffffffffffffffffffffffffffffffffffff163373ffffffffffffffffffffffffffffffffffffffff161415156123da57600080fd5b8160118190555060019050919050565b6000600660009054906101000a900473ffffffffffffffffffffffffffffffffffffffff1673ffffffffffffffffffffffffffffffffffffffff163373ffffffffffffffffffffffffffffffffffffffff1614151561244857600080fd5b60146000838152602001908152602001600020905060018160020160006101000a81548160ff0219169083151502179055506000809054906101000a900473ffffffffffffffffffffffffffffffffffffffff1673ffffffffffffffffffffffffffffffffffffffff1663d3f696f23083600101546040518363ffffffff167c0100000000000000000000000000000000000000000000000000000000028152600401808373ffffffffffffffffffffffffffffffffffffffff1673ffffffffffffffffffffffffffffffffffffffff16815260200182815260200192505050602060405180830381600087803b15801561254257600080fd5b505af1158015612556573d6000803e3d6000fd5b505050506040513d602081101561256c57600080fd5b810190808051906020019092919050505050600660009054906101000a900473ffffffffffffffffffffffffffffffffffffffff1673ffffffffffffffffffffffffffffffffffffffff163073ffffffffffffffffffffffffffffffffffffffff167f84a89695fd878e3ff78275fd345f906768c8c7bcb4c59aa6b1bf3dec9e325d40836001015442604051808381526020018281526020019250505060405180910390a38060010154600f600082825401925050819055505050565b60168181548110151561263857fe5b9060005260206000209060090201600091509050806000018054600181600116156101000203166002900480601f0160208091040260200160405190810160405280929190818152602001828054600181600116156101000203166002900480156126e45780601f106126b9576101008083540402835291602001916126e4565b820191906000526020600020905b8154815290600101906020018083116126c757829003601f168201915b505050505090806001018054600181600116156101000203166002900480601f0160208091040260200160405190810160405280929190818152602001828054600181600116156101000203166002900480156127825780601f1061275757610100808354040283529160200191612782565b820191906000526020600020905b81548152906001019060200180831161276557829003601f168201915b5050505050908060020154908060030154908060040154908060050160009054906101000a900460ff16908060060154908060070160009054906101000a900460ff16908060080154905089565b60115481565b600b8054600181600116156101000203166002900480601f01602080910402602001604051908101604052809291908181526020018280546001816001161561010002031660029004801561286c5780601f106128415761010080835404028352916020019161286c565b820191906000526020600020905b81548152906001019060200180831161284f57829003601f168201915b505050505081565b6000818301905082811015151561288757fe5b80905092915050565b60606040519081016040528060608152602001600073ffffffffffffffffffffffffffffffffffffffff1681526020016000151581525090565b828054600181600116156101000203166002900490600052602060002090601f016020900481019282601f1061290b57805160ff1916838001178555612939565b82800160010185558215612939579182015b8281111561293857825182559160200191906001019061291d565b5b50905061294691906129b4565b5090565b6040516106ec806129da83390190565b61012060405190810160405280606081526020016060815260200160008152602001600081526020016000815260200160001515815260200160008152602001600060068111156129a757fe5b8152602001600081525090565b6129d691905b808211156129d25760008160009055506001016129ba565b5090565b905600608060405234801561001057600080fd5b506040516060806106ec83398101806040528101908080519060200190929190805190602001909291908051906020019092919050505060008311151561005657600080fd5b600073ffffffffffffffffffffffffffffffffffffffff168273ffffffffffffffffffffffffffffffffffffffff161415151561009257600080fd5b600073ffffffffffffffffffffffffffffffffffffffff168173ffffffffffffffffffffffffffffffffffffffff16141515156100ce57600080fd5b8260028190555081600160006101000a81548173ffffffffffffffffffffffffffffffffffffffff021916908373ffffffffffffffffffffffffffffffffffffffff160217905550806000806101000a81548173ffffffffffffffffffffffffffffffffffffffff021916908373ffffffffffffffffffffffffffffffffffffffff160217905550505050610584806101686000396000f30060806040526004361061006d576000357c0100000000000000000000000000000000000000000000000000000000900463ffffffff1680632c4e722e146100785780634042b66f146100a3578063521eb273146100ce578063ec8ac4d814610125578063fc0c546a1461015b575b610076336101b2565b005b34801561008457600080fd5b5061008d610280565b6040518082815260200191505060405180910390f35b3480156100af57600080fd5b506100b8610286565b6040518082815260200191505060405180910390f35b3480156100da57600080fd5b506100e361028c565b604051808273ffffffffffffffffffffffffffffffffffffffff1673ffffffffffffffffffffffffffffffffffffffff16815260200191505060405180910390f35b610159600480360381019080803573ffffffffffffffffffffffffffffffffffffffff1690602001909291905050506101b2565b005b34801561016757600080fd5b506101706102b2565b604051808273ffffffffffffffffffffffffffffffffffffffff1673ffffffffffffffffffffffffffffffffffffffff16815260200191505060405180910390f35b6000803491506101c283836102d7565b6101cb82610327565b90506101e28260035461034590919063ffffffff16565b6003819055506101f28382610361565b8273ffffffffffffffffffffffffffffffffffffffff163373ffffffffffffffffffffffffffffffffffffffff167f623b3804fa71d67900d064613da8f94b9617215ee90799290593e1745087ad188484604051808381526020018281526020019250505060405180910390a3610269838361036f565b610271610373565b61027b83836103de565b505050565b60025481565b60035481565b600160009054906101000a900473ffffffffffffffffffffffffffffffffffffffff1681565b6000809054906101000a900473ffffffffffffffffffffffffffffffffffffffff1681565b600073ffffffffffffffffffffffffffffffffffffffff168273ffffffffffffffffffffffffffffffffffffffff161415151561031357600080fd5b6000811415151561032357600080fd5b5050565b600061033e600254836103e290919063ffffffff16565b9050919050565b6000818301905082811015151561035857fe5b80905092915050565b61036b828261041a565b5050565b5050565b600160009054906101000a900473ffffffffffffffffffffffffffffffffffffffff1673ffffffffffffffffffffffffffffffffffffffff166108fc349081150290604051600060405180830381858888f193505050501580156103db573d6000803e3d6000fd5b50565b5050565b6000808314156103f55760009050610414565b818302905081838281151561040657fe5b0414151561041057fe5b8090505b92915050565b61046682826000809054906101000a900473ffffffffffffffffffffffffffffffffffffffff1673ffffffffffffffffffffffffffffffffffffffff1661046a9092919063ffffffff16565b5050565b8273ffffffffffffffffffffffffffffffffffffffff1663a9059cbb83836040518363ffffffff167c0100000000000000000000000000000000000000000000000000000000028152600401808373ffffffffffffffffffffffffffffffffffffffff1673ffffffffffffffffffffffffffffffffffffffff16815260200182815260200192505050602060405180830381600087803b15801561050d57600080fd5b505af1158015610521573d6000803e3d6000fd5b505050506040513d602081101561053757600080fd5b8101908080519060200190929190505050151561055357600080fd5b5050505600a165627a7a7230582008ccf953d1171155a0c9ccf16c788acd6e16690381f5c8b99e4bfc5265cba38e0029a165627a7a72305820eefae03d5c63d3b9696f8df4035729905b3f8ad0aa1b29fbe0aed7fc07b25df60029a165627a7a72305820eab1bb22c07f38f5ac9dd4608d85755c19d8b4d2376531b71469d7c7627408f00029",
  "source": "pragma solidity ^0.4.24;\nimport \"../node_modules/openzeppelin-solidity/contracts/math/SafeMath.sol\";\nimport \"../node_modules/openzeppelin-solidity/contracts/ownership/Ownable.sol\";\nimport \"./ParticipantManager.sol\";\n//import \"./Roles.sol\";\n//import \"./RBAC.sol\";\n\n\n\ncontract ParticipantFactory is Ownable /* , RBAC */{\n\n    using SafeMath for uint;\n    using SafeMath for int;\n   \n    address[] public participantsList;\n   \n    address public FACTORY_OWNER;\n    address public DEFAULT_VALIDATOR;\n\n    \n    mapping(address => uint) public participantConsumption;\n    mapping(address => uint) public participantContribution;\n    mapping(address => uint) public participantIncome;\n    mapping(address => bool) public isParticipant;\n   \n    \n    address validator;\n    address tokenAddress;\n    uint public test;\n    \n    event newParticipantCreated (address indexed newParticipantAddress, address indexed owner);\n    \n    constructor(address _tokenAddress) public{\n        FACTORY_OWNER = msg.sender;\n        DEFAULT_VALIDATOR = msg.sender;\n        tokenAddress = _tokenAddress;\n       // addRole(this,\"FOUNDATION\");\n        \n    }\n    \n \n    //address defaultFactoryOwner = 0xca35b7d915458ef540ade6068dfe2f44e8fa733c;\n    string DEFAULT_TYPE=\"A\";\n    string DEFAULT_PARTICIPANT_NAME=\"GUIFI\";\n    \n    function createChildParticipant(string _nameParticipant, address _participantOwner) public onlyOwner {\n      // insert check if the sent ether is enough to cover the car asset ...\n        address newParticipant = new ParticipantManager(_nameParticipant, _participantOwner,this, FACTORY_OWNER, DEFAULT_VALIDATOR, tokenAddress);            \n        participantsList.push(newParticipant);   \n        isParticipant[newParticipant]=true;\n        emit newParticipantCreated(newParticipant, _participantOwner);\n   }\n\n   function getDeployedParticipantContracts() public view returns (address[]) {\n      return participantsList;\n   }\n   \n   \n    /*function getPair(uint8 i) constant public returns (address _participant, address _owner) {\n\n        return (pairParticipantsOwners[i][0],pairParticipantsOwners[i][1]);\n    }*/\n    \n    \n    function setNewExpense (address _participant, uint _expense) public returns (bool success) {\n        participantContribution[_participant] =  participantContribution[_participant].add(_expense);\n        return true;\n    }\n    \n     \n    function setNewConsumption (address _participant, uint _contribution) public returns (bool success) {\n        require(isParticipant[_participant]== true);\n        participantConsumption[_participant] =  participantConsumption[_participant].add(_contribution);\n        return true;\n    }\n     \n    \n    \n    \n}\n",
  "sourcePath": "/home/democritus/Documents/Projects/ScipioPlatform/scipio-react/contracts/ParticipantFactory.sol",
  "compiler": {
    "name": "solc",
    "version": "0.4.24+commit.e67f0147.Emscripten.clang"
  },
  "schemaVersion": "2.0.1",
  "updatedAt": "2018-08-26T18:15:10.919Z"
}